{
  "contractName": "ProductAuthenticator",
  "abi": [
    {
      "inputs": [],
      "payable": false,
      "stateMutability": "nonpayable",
      "type": "constructor"
    },
    {
      "constant": false,
      "inputs": [
        {
          "internalType": "address",
          "name": "newManager",
          "type": "address"
        }
      ],
      "name": "addManager",
      "outputs": [],
      "payable": false,
      "stateMutability": "nonpayable",
      "type": "function"
    },
    {
      "constant": false,
      "inputs": [
        {
          "internalType": "address",
          "name": "manager",
          "type": "address"
        }
      ],
      "name": "removeManager",
      "outputs": [],
      "payable": false,
      "stateMutability": "nonpayable",
      "type": "function"
    },
    {
      "constant": false,
      "inputs": [
        {
          "internalType": "string",
          "name": "model",
          "type": "string"
        },
        {
          "internalType": "string",
          "name": "serialNumber",
          "type": "string"
        },
        {
          "internalType": "string",
          "name": "manufacturerName",
          "type": "string"
        },
        {
          "internalType": "string",
          "name": "manufacturerLocation",
          "type": "string"
        },
        {
          "internalType": "string",
          "name": "manufacturerTimestamp",
          "type": "string"
        }
      ],
      "name": "generateCode",
      "outputs": [
        {
          "internalType": "string",
          "name": "",
          "type": "string"
        }
      ],
      "payable": false,
      "stateMutability": "nonpayable",
      "type": "function"
    },
    {
      "constant": true,
      "inputs": [
        {
          "internalType": "string",
          "name": "productCode",
          "type": "string"
        }
      ],
      "name": "getProductInfo",
      "outputs": [
        {
          "internalType": "string",
          "name": "",
          "type": "string"
        },
        {
          "internalType": "string",
          "name": "",
          "type": "string"
        },
        {
          "internalType": "string",
          "name": "",
          "type": "string"
        },
        {
          "internalType": "string",
          "name": "",
          "type": "string"
        }
      ],
      "payable": false,
      "stateMutability": "view",
      "type": "function"
    }
  ],
  "bytecode": "0x60806040523480156200001157600080fd5b50600080546001600160a01b0319163390811782558152600160208190526040909120805460ff19169091179055620000526001600160e01b036200005816565b620004f1565b60408051808201825260098082526815195cdd135bd9195b60ba1b602080840191909152835180850185529182526831323334353637383960b81b8282015283518085018552601081526f2a32b9ba26b0b73ab330b1ba3ab932b960811b8183015284518086018652600c81526b2a32b9ba2637b1b0ba34b7b760a11b818401528551808701909652600a865269323032332d31322d303160b01b92860192909252929391929160606200011986868686866001600160e01b036200012216565b50505050505050565b3360009081526001602052604090205460609060ff16620001755760405162461bcd60e51b8152600401808060200182810382526023815260200180620014416023913960400191505060405180910390fd5b60608686846040516020018084805190602001908083835b60208310620001ae5780518252601f1990920191602091820191016200018d565b51815160209384036101000a600019018019909216911617905286519190930192860191508083835b60208310620001f85780518252601f199092019160209182019101620001d7565b51815160209384036101000a600019018019909216911617905285519190930192850191508083835b60208310620002425780518252601f19909201916020918201910162000221565b6001836020036101000a03801982511681845116808217855250505050505090500193505050506040516020818303038152906040529050620002846200041d565b6040518060a00160405280898152602001888152602001878152602001868152602001858152509050806002836040518082805190602001908083835b60208310620002e25780518252601f199092019160209182019101620002c1565b51815160209384036101000a600019018019909216911617905292019485525060405193849003810190932084518051919462000325945085935001906200044c565b5060208281015180516200034092600185019201906200044c565b50604082015180516200035e9160028401916020909101906200044c565b50606082015180516200037c9160038401916020909101906200044c565b50608082015180516200039a9160048401916020909101906200044c565b5090505060016003836040518082805190602001908083835b60208310620003d45780518252601f199092019160209182019101620003b3565b51815160209384036101000a60001901801990921691161790529201948552506040519384900301909220805460ff191693151593909317909255509198975050505050505050565b6040518060a0016040528060608152602001606081526020016060815260200160608152602001606081525090565b828054600181600116156101000203166002900490600052602060002090601f016020900481019282601f106200048f57805160ff1916838001178555620004bf565b82800160010185558215620004bf579182015b82811115620004bf578251825591602001919060010190620004a2565b50620004cd929150620004d1565b5090565b620004ee91905b80821115620004cd5760008155600101620004d8565b90565b610f4080620005016000396000f3fe608060405234801561001057600080fd5b506004361061004c5760003560e01c80632d06177a1461005157806357ba11b014610079578063ac18de43146102c7578063da97a24c146102ed575b600080fd5b6100776004803603602081101561006757600080fd5b50356001600160a01b031661061a565b005b61011d6004803603602081101561008f57600080fd5b810190602081018135600160201b8111156100a957600080fd5b8201836020820111156100bb57600080fd5b803590602001918460018302840111600160201b831117156100dc57600080fd5b91908080601f016020809104026020016040519081016040528093929190818152602001838380828437600092019190915250929550610658945050505050565b6040518080602001806020018060200180602001858103855289818151815260200191508051906020019080838360005b8381101561016657818101518382015260200161014e565b50505050905090810190601f1680156101935780820380516001836020036101000a031916815260200191505b5085810384528851815288516020918201918a019080838360005b838110156101c65781810151838201526020016101ae565b50505050905090810190601f1680156101f35780820380516001836020036101000a031916815260200191505b50858103835287518152875160209182019189019080838360005b8381101561022657818101518382015260200161020e565b50505050905090810190601f1680156102535780820380516001836020036101000a031916815260200191505b50858103825286518152865160209182019188019080838360005b8381101561028657818101518382015260200161026e565b50505050905090810190601f1680156102b35780820380516001836020036101000a031916815260200191505b509850505050505050505060405180910390f35b610077600480360360208110156102dd57600080fd5b50356001600160a01b0316610a91565b6105a5600480360360a081101561030357600080fd5b810190602081018135600160201b81111561031d57600080fd5b82018360208201111561032f57600080fd5b803590602001918460018302840111600160201b8311171561035057600080fd5b91908080601f0160208091040260200160405190810160405280939291908181526020018383808284376000920191909152509295949360208101935035915050600160201b8111156103a257600080fd5b8201836020820111156103b457600080fd5b803590602001918460018302840111600160201b831117156103d557600080fd5b91908080601f0160208091040260200160405190810160405280939291908181526020018383808284376000920191909152509295949360208101935035915050600160201b81111561042757600080fd5b82018360208201111561043957600080fd5b803590602001918460018302840111600160201b8311171561045a57600080fd5b91908080601f0160208091040260200160405190810160405280939291908181526020018383808284376000920191909152509295949360208101935035915050600160201b8111156104ac57600080fd5b8201836020820111156104be57600080fd5b803590602001918460018302840111600160201b831117156104df57600080fd5b91908080601f0160208091040260200160405190810160405280939291908181526020018383808284376000920191909152509295949360208101935035915050600160201b81111561053157600080fd5b82018360208201111561054357600080fd5b803590602001918460018302840111600160201b8311171561056457600080fd5b91908080601f016020809104026020016040519081016040528093929190818152602001838380828437600092019190915250929550610b16945050505050565b6040805160208082528351818301528351919283929083019185019080838360005b838110156105df5781810151838201526020016105c7565b50505050905090810190601f16801561060c5780820380516001836020036101000a031916815260200191505b509250505060405180910390f35b6000546001600160a01b0316331461063157600080fd5b6001600160a01b03166000908152600160208190526040909120805460ff19169091179055565b6060806060806003856040518082805190602001908083835b602083106106905780518252601f199092019160209182019101610671565b51815160209384036101000a600019018019909216911617905292019485525060405193849003019092205460ff16915061070d9050576040805162461bcd60e51b8152602060048201526016602482015275141c9bd91d58dd08191bd95cc81b9bdd08195e1a5cdd60521b604482015290519081900360640190fd5b610715610df9565b6002866040518082805190602001908083835b602083106107475780518252601f199092019160209182019101610728565b518151600019602094850361010090810a82019283169219939093169190911790925294909201968752604080519788900382018820805460c0601f600260018416159099029096019091169690960493840183900490920288018501905260a08701828152909550869450928592508401828280156108085780601f106107dd57610100808354040283529160200191610808565b820191906000526020600020905b8154815290600101906020018083116107eb57829003601f168201915b50505050508152602001600182018054600181600116156101000203166002900480601f0160208091040260200160405190810160405280929190818152602001828054600181600116156101000203166002900480156108aa5780601f1061087f576101008083540402835291602001916108aa565b820191906000526020600020905b81548152906001019060200180831161088d57829003601f168201915b5050509183525050600282810180546040805160206001841615610100026000190190931694909404601f8101839004830285018301909152808452938101939083018282801561093c5780601f106109115761010080835404028352916020019161093c565b820191906000526020600020905b81548152906001019060200180831161091f57829003601f168201915b505050918352505060038201805460408051602060026001851615610100026000190190941693909304601f81018490048402820184019092528181529382019392918301828280156109d05780601f106109a5576101008083540402835291602001916109d0565b820191906000526020600020905b8154815290600101906020018083116109b357829003601f168201915b505050918352505060048201805460408051602060026001851615610100026000190190941693909304601f8101849004840282018401909252818152938201939291830182828015610a645780601f10610a3957610100808354040283529160200191610a64565b820191906000526020600020905b815481529060010190602001808311610a4757829003601f168201915b505050919092525050815160208301516040840151606090940151919a9099509297509550909350505050565b6000546001600160a01b03163314610aa857600080fd5b6000546001600160a01b0382811691161415610af55760405162461bcd60e51b8152600401808060200182810382526025815260200180610ec46025913960400191505060405180910390fd5b6001600160a01b03166000908152600160205260409020805460ff19169055565b3360009081526001602052604090205460609060ff16610b675760405162461bcd60e51b8152600401808060200182810382526023815260200180610ee96023913960400191505060405180910390fd5b60608686846040516020018084805190602001908083835b60208310610b9e5780518252601f199092019160209182019101610b7f565b51815160209384036101000a600019018019909216911617905286519190930192860191508083835b60208310610be65780518252601f199092019160209182019101610bc7565b51815160209384036101000a600019018019909216911617905285519190930192850191508083835b60208310610c2e5780518252601f199092019160209182019101610c0f565b6001836020036101000a03801982511681845116808217855250505050505090500193505050506040516020818303038152906040529050610c6e610df9565b6040518060a00160405280898152602001888152602001878152602001868152602001858152509050806002836040518082805190602001908083835b60208310610cca5780518252601f199092019160209182019101610cab565b51815160209384036101000a6000190180199092169116179052920194855250604051938490038101909320845180519194610d0b94508593500190610e28565b506020828101518051610d249260018501920190610e28565b5060408201518051610d40916002840191602090910190610e28565b5060608201518051610d5c916003840191602090910190610e28565b5060808201518051610d78916004840191602090910190610e28565b5090505060016003836040518082805190602001908083835b60208310610db05780518252601f199092019160209182019101610d91565b51815160209384036101000a60001901801990921691161790529201948552506040519384900301909220805460ff191693151593909317909255509198975050505050505050565b6040518060a0016040528060608152602001606081526020016060815260200160608152602001606081525090565b828054600181600116156101000203166002900490600052602060002090601f016020900481019282601f10610e6957805160ff1916838001178555610e96565b82800160010185558215610e96579182015b82811115610e96578251825591602001919060010190610e7b565b50610ea2929150610ea6565b5090565b610ec091905b80821115610ea25760008155600101610eac565b9056fe4f776e65722063616e6e6f742062652072656d6f7665642061732061206d616e616765722e4f6e6c79206d616e61676572732063616e20706572666f6d207468697320726f6c652ea265627a7a72315820fbd143eeeb40c57635092770e00d799fc601bf29bcc8e93a632dd066c7f4181e64736f6c634300051000324f6e6c79206d616e61676572732063616e20706572666f6d207468697320726f6c652e",
  "source": "// SPDX-License-Identifier: MIT\r\npragma solidity ^0.5.16;\r\n\r\ncontract ProductAuthenticator {\r\n    address owner;\r\n    mapping(address => bool) managers;\r\n\r\n    // Struct to store product information\r\n    struct Product {\r\n        string model;\r\n        string serialNumber;\r\n        string manufacturerName;\r\n        string manufacturerLocation;\r\n        string manufacturerTimestamp;\r\n    }\r\n\r\n    // Mapping for products\r\n    mapping(string => Product) products;\r\n    mapping(string=> bool) productExists;\r\n\r\n    // Modifiers\r\n    modifier onlyOwner {\r\n        require(msg.sender == owner);\r\n        _;\r\n    }\r\n\r\n    modifier onlyManager {\r\n        require(managers[msg.sender], \"Only managers can perfom this role.\");\r\n        _;\r\n    }\r\n\r\n    // Sets address of initializer to owner\r\n    constructor() public {\r\n        owner = msg.sender;\r\n        managers[msg.sender] = true;\r\n\r\n        initializeTestProduct();\r\n    } \r\n\r\n    // Function to add a new manager\r\n    function addManager(address newManager) public onlyOwner {\r\n        managers[newManager] = true;\r\n    }\r\n \r\n    // Function to remove a manager\r\n    function removeManager(address manager) public onlyOwner {\r\n        require(manager != owner, \"Owner cannot be removed as a manager.\");\r\n        managers[manager] = false;\r\n    }\r\n\r\n    // Function to generate new product code; Originally wanted to generate QR Codes, but used a simple code for simplicity\r\n    function generateCode(string memory model, string memory serialNumber, string memory manufacturerName, string memory manufacturerLocation, string memory manufacturerTimestamp) public onlyManager returns(string memory){\r\n        string memory productCode = string(abi.encodePacked(model, serialNumber, manufacturerTimestamp));\r\n\r\n        Product memory newProduct = Product(model, serialNumber, manufacturerName, manufacturerLocation, manufacturerTimestamp);\r\n        products[productCode] = newProduct;\r\n        productExists[productCode] = true;\r\n\r\n        return productCode;\r\n    }\r\n\r\n\r\n    // Function to search if the user inputted product code exists on the blockchain, if it does, then gives user information about the product\r\n    function getProductInfo(string memory productCode) public view returns (string memory, string memory, string memory, string memory) {\r\n        require(productExists[productCode], \"Product does not exist\");\r\n        Product memory product = products[productCode];\r\n\r\n        return (\r\n            product.model,\r\n            product.serialNumber,\r\n            product.manufacturerName,\r\n            product.manufacturerLocation\r\n        );\r\n    }\r\n\r\n    // Function to initialize the contract with a test product\r\n    function initializeTestProduct() internal {\r\n        string memory testModel = \"TestModel\";\r\n        string memory testSerialNumber = \"123456789\";\r\n        string memory testManufacturerName = \"TestManufacturer\";\r\n        string memory testManufacturerLocation = \"TestLocation\";\r\n        string memory testManufacturerTimestamp = \"2023-12-01\";\r\n\r\n        string memory testProductCode = generateCode(\r\n            testModel,\r\n            testSerialNumber,\r\n            testManufacturerName,\r\n            testManufacturerLocation,\r\n            testManufacturerTimestamp\r\n        );\r\n    }\r\n}",
  "sourcePath": "C:\\Users\\jamez\\OneDrive\\Documents\\Final Project Test\\productauth-contract\\contracts\\ProductAuthenticator.sol",
  "compiler": {
    "name": "solc",
    "version": "0.5.16+commit.9c3226ce.Emscripten.clang"
  },
  "schemaVersion": "3.4.16",
  "updatedAt": "2023-12-10T05:04:39.608Z",
  "networkType": "ethereum",
  "devdoc": {
    "methods": {}
  },
  "userdoc": {
    "methods": {}
  }
}